{
  "_format": "hh-sol-artifact-1",
  "contractName": "Drive",
  "sourceName": "src/backend/contracts/Drive.sol",
  "abi": [
    {
      "inputs": [],
      "name": "AccessDeclined",
      "type": "error"
    },
    {
      "inputs": [],
      "name": "UserAlreadyAdded",
      "type": "error"
    },
    {
      "inputs": [
        {
          "internalType": "address",
          "name": "user",
          "type": "address"
        }
      ],
      "name": "Allow",
      "outputs": [
        {
          "internalType": "bool",
          "name": "",
          "type": "bool"
        }
      ],
      "stateMutability": "nonpayable",
      "type": "function"
    },
    {
      "inputs": [
        {
          "internalType": "address",
          "name": "user",
          "type": "address"
        }
      ],
      "name": "BlockAccess",
      "outputs": [
        {
          "internalType": "bool",
          "name": "",
          "type": "bool"
        }
      ],
      "stateMutability": "nonpayable",
      "type": "function"
    },
    {
      "inputs": [],
      "name": "Display",
      "outputs": [
        {
          "internalType": "string[]",
          "name": "",
          "type": "string[]"
        }
      ],
      "stateMutability": "view",
      "type": "function"
    },
    {
      "inputs": [
        {
          "internalType": "address",
          "name": "user",
          "type": "address"
        }
      ],
      "name": "DisplayShared",
      "outputs": [
        {
          "internalType": "string[]",
          "name": "",
          "type": "string[]"
        }
      ],
      "stateMutability": "view",
      "type": "function"
    },
    {
      "inputs": [
        {
          "internalType": "string",
          "name": "file",
          "type": "string"
        }
      ],
      "name": "PushFile",
      "outputs": [
        {
          "internalType": "bool",
          "name": "",
          "type": "bool"
        }
      ],
      "stateMutability": "nonpayable",
      "type": "function"
    },
    {
      "inputs": [
        {
          "internalType": "string",
          "name": "name",
          "type": "string"
        }
      ],
      "name": "SetName",
      "outputs": [],
      "stateMutability": "nonpayable",
      "type": "function"
    },
    {
      "inputs": [],
      "name": "SharedDrives",
      "outputs": [
        {
          "internalType": "address[]",
          "name": "",
          "type": "address[]"
        }
      ],
      "stateMutability": "view",
      "type": "function"
    },
    {
      "inputs": [
        {
          "internalType": "address",
          "name": "user",
          "type": "address"
        }
      ],
      "name": "UserName",
      "outputs": [
        {
          "internalType": "string",
          "name": "",
          "type": "string"
        }
      ],
      "stateMutability": "view",
      "type": "function"
    }
  ],
  "bytecode": "0x608060405234801561001057600080fd5b50611b60806100206000396000f3fe608060405234801561001057600080fd5b50600436106100885760003560e01c806376c390fe1161005b57806376c390fe146101395780637a470f8d14610157578063b935dc2614610187578063ee11da70146101b757610088565b806316c61d721461008d5780632c7bf11e146100bd5780634df9dcd3146100ed5780636956270a14610109575b600080fd5b6100a760048036038101906100a29190611110565b6101d5565b6040516100b49190611158565b60405180910390f35b6100d760048036038101906100d291906111d8565b61047b565b6040516100e49190611158565b60405180910390f35b61010760048036038101906101029190611366565b610504565b005b610123600480360381019061011e9190611110565b610556565b6040516101309190611158565b60405180910390f35b610141610c07565b60405161014e91906114f0565b60405180910390f35b610171600480360381019061016c9190611110565b610d1f565b60405161017e91906114f0565b60405180910390f35b6101a1600480360381019061019c9190611110565b610f00565b6040516101ae919061155c565b60405180910390f35b6101bf610fd3565b6040516101cc919061163c565b60405180910390f35b600060011515600160003373ffffffffffffffffffffffffffffffffffffffff1673ffffffffffffffffffffffffffffffffffffffff16815260200190815260200160002060008473ffffffffffffffffffffffffffffffffffffffff1673ffffffffffffffffffffffffffffffffffffffff16815260200190815260200160002060009054906101000a900460ff1615150361029e576040517f5cc6dd3e00000000000000000000000000000000000000000000000000000000815260040160405180910390fd5b60018060003373ffffffffffffffffffffffffffffffffffffffff1673ffffffffffffffffffffffffffffffffffffffff16815260200190815260200160002060008473ffffffffffffffffffffffffffffffffffffffff1673ffffffffffffffffffffffffffffffffffffffff16815260200190815260200160002060006101000a81548160ff021916908315150217905550600260003373ffffffffffffffffffffffffffffffffffffffff1673ffffffffffffffffffffffffffffffffffffffff168152602001908152602001600020829080600181540180825580915050600190039060005260206000200160009091909190916101000a81548173ffffffffffffffffffffffffffffffffffffffff021916908373ffffffffffffffffffffffffffffffffffffffff160217905550600360008373ffffffffffffffffffffffffffffffffffffffff1673ffffffffffffffffffffffffffffffffffffffff168152602001908152602001600020339080600181540180825580915050600190039060005260206000200160009091909190916101000a81548173ffffffffffffffffffffffffffffffffffffffff021916908373ffffffffffffffffffffffffffffffffffffffff16021790555060019050919050565b60008060003373ffffffffffffffffffffffffffffffffffffffff1673ffffffffffffffffffffffffffffffffffffffff1681526020019081526020016000206001018383909180600181540180825580915050600190039060005260206000200160009091929091929091929091925091826104f992919061187f565b506001905092915050565b806000803373ffffffffffffffffffffffffffffffffffffffff1673ffffffffffffffffffffffffffffffffffffffff1681526020019081526020016000206000019081610552919061194f565b5050565b6000801515600160003373ffffffffffffffffffffffffffffffffffffffff1673ffffffffffffffffffffffffffffffffffffffff16815260200190815260200160002060008473ffffffffffffffffffffffffffffffffffffffff1673ffffffffffffffffffffffffffffffffffffffff16815260200190815260200160002060009054906101000a900460ff161515036105f55760019050610c02565b6000600160003373ffffffffffffffffffffffffffffffffffffffff1673ffffffffffffffffffffffffffffffffffffffff16815260200190815260200160002060008473ffffffffffffffffffffffffffffffffffffffff1673ffffffffffffffffffffffffffffffffffffffff16815260200190815260200160002060006101000a81548160ff0219169083151502179055506000600260003373ffffffffffffffffffffffffffffffffffffffff1673ffffffffffffffffffffffffffffffffffffffff16815260200190815260200160002080549050905060005b81811015610943578373ffffffffffffffffffffffffffffffffffffffff16600260003373ffffffffffffffffffffffffffffffffffffffff1673ffffffffffffffffffffffffffffffffffffffff168152602001908152602001600020828154811061074457610743611a21565b5b9060005260206000200160009054906101000a900473ffffffffffffffffffffffffffffffffffffffff1673ffffffffffffffffffffffffffffffffffffffff160361093057600260003373ffffffffffffffffffffffffffffffffffffffff1673ffffffffffffffffffffffffffffffffffffffff1681526020019081526020016000206001836107d69190611a7f565b815481106107e7576107e6611a21565b5b9060005260206000200160009054906101000a900473ffffffffffffffffffffffffffffffffffffffff16600260003373ffffffffffffffffffffffffffffffffffffffff1673ffffffffffffffffffffffffffffffffffffffff168152602001908152602001600020828154811061086357610862611a21565b5b9060005260206000200160006101000a81548173ffffffffffffffffffffffffffffffffffffffff021916908373ffffffffffffffffffffffffffffffffffffffff160217905550600260003373ffffffffffffffffffffffffffffffffffffffff1673ffffffffffffffffffffffffffffffffffffffff1681526020019081526020016000208054806108fa576108f9611ab3565b5b6001900381819060005260206000200160006101000a81549073ffffffffffffffffffffffffffffffffffffffff021916905590555b808061093b90611ae2565b9150506106d4565b50600360008473ffffffffffffffffffffffffffffffffffffffff1673ffffffffffffffffffffffffffffffffffffffff16815260200190815260200160002080549050905060005b81811015610bfb573373ffffffffffffffffffffffffffffffffffffffff16600360008673ffffffffffffffffffffffffffffffffffffffff1673ffffffffffffffffffffffffffffffffffffffff16815260200190815260200160002082815481106109fc576109fb611a21565b5b9060005260206000200160009054906101000a900473ffffffffffffffffffffffffffffffffffffffff1673ffffffffffffffffffffffffffffffffffffffff1603610be857600360008573ffffffffffffffffffffffffffffffffffffffff1673ffffffffffffffffffffffffffffffffffffffff168152602001908152602001600020600183610a8e9190611a7f565b81548110610a9f57610a9e611a21565b5b9060005260206000200160009054906101000a900473ffffffffffffffffffffffffffffffffffffffff16600360008673ffffffffffffffffffffffffffffffffffffffff1673ffffffffffffffffffffffffffffffffffffffff1681526020019081526020016000208281548110610b1b57610b1a611a21565b5b9060005260206000200160006101000a81548173ffffffffffffffffffffffffffffffffffffffff021916908373ffffffffffffffffffffffffffffffffffffffff160217905550600360008573ffffffffffffffffffffffffffffffffffffffff1673ffffffffffffffffffffffffffffffffffffffff168152602001908152602001600020805480610bb257610bb1611ab3565b5b6001900381819060005260206000200160006101000a81549073ffffffffffffffffffffffffffffffffffffffff021916905590555b8080610bf390611ae2565b91505061098c565b5060019150505b919050565b60606000803373ffffffffffffffffffffffffffffffffffffffff1673ffffffffffffffffffffffffffffffffffffffff168152602001908152602001600020600101805480602002602001604051908101604052809291908181526020016000905b82821015610d16578382906000526020600020018054610c8990611698565b80601f0160208091040260200160405190810160405280929190818152602001828054610cb590611698565b8015610d025780601f10610cd757610100808354040283529160200191610d02565b820191906000526020600020905b815481529060010190602001808311610ce557829003601f168201915b505050505081526020019060010190610c6a565b50505050905090565b606060001515600160008473ffffffffffffffffffffffffffffffffffffffff1673ffffffffffffffffffffffffffffffffffffffff16815260200190815260200160002060003373ffffffffffffffffffffffffffffffffffffffff1673ffffffffffffffffffffffffffffffffffffffff16815260200190815260200160002060009054906101000a900460ff16151503610de8576040517fe074f26500000000000000000000000000000000000000000000000000000000815260040160405180910390fd5b6000808373ffffffffffffffffffffffffffffffffffffffff1673ffffffffffffffffffffffffffffffffffffffff168152602001908152602001600020600101805480602002602001604051908101604052809291908181526020016000905b82821015610ef5578382906000526020600020018054610e6890611698565b80601f0160208091040260200160405190810160405280929190818152602001828054610e9490611698565b8015610ee15780601f10610eb657610100808354040283529160200191610ee1565b820191906000526020600020905b815481529060010190602001808311610ec457829003601f168201915b505050505081526020019060010190610e49565b505050509050919050565b60606000808373ffffffffffffffffffffffffffffffffffffffff1673ffffffffffffffffffffffffffffffffffffffff1681526020019081526020016000206000018054610f4e90611698565b80601f0160208091040260200160405190810160405280929190818152602001828054610f7a90611698565b8015610fc75780601f10610f9c57610100808354040283529160200191610fc7565b820191906000526020600020905b815481529060010190602001808311610faa57829003601f168201915b50505050509050919050565b6060600360003373ffffffffffffffffffffffffffffffffffffffff1673ffffffffffffffffffffffffffffffffffffffff16815260200190815260200160002080548060200260200160405190810160405280929190818152602001828054801561109457602002820191906000526020600020905b8160009054906101000a900473ffffffffffffffffffffffffffffffffffffffff1673ffffffffffffffffffffffffffffffffffffffff168152602001906001019080831161104a575b5050505050905090565b6000604051905090565b600080fd5b600080fd5b600073ffffffffffffffffffffffffffffffffffffffff82169050919050565b60006110dd826110b2565b9050919050565b6110ed816110d2565b81146110f857600080fd5b50565b60008135905061110a816110e4565b92915050565b600060208284031215611126576111256110a8565b5b6000611134848285016110fb565b91505092915050565b60008115159050919050565b6111528161113d565b82525050565b600060208201905061116d6000830184611149565b92915050565b600080fd5b600080fd5b600080fd5b60008083601f84011261119857611197611173565b5b8235905067ffffffffffffffff8111156111b5576111b4611178565b5b6020830191508360018202830111156111d1576111d061117d565b5b9250929050565b600080602083850312156111ef576111ee6110a8565b5b600083013567ffffffffffffffff81111561120d5761120c6110ad565b5b61121985828601611182565b92509250509250929050565b600080fd5b6000601f19601f8301169050919050565b7f4e487b7100000000000000000000000000000000000000000000000000000000600052604160045260246000fd5b6112738261122a565b810181811067ffffffffffffffff821117156112925761129161123b565b5b80604052505050565b60006112a561109e565b90506112b1828261126a565b919050565b600067ffffffffffffffff8211156112d1576112d061123b565b5b6112da8261122a565b9050602081019050919050565b82818337600083830152505050565b6000611309611304846112b6565b61129b565b90508281526020810184848401111561132557611324611225565b5b6113308482856112e7565b509392505050565b600082601f83011261134d5761134c611173565b5b813561135d8482602086016112f6565b91505092915050565b60006020828403121561137c5761137b6110a8565b5b600082013567ffffffffffffffff81111561139a576113996110ad565b5b6113a684828501611338565b91505092915050565b600081519050919050565b600082825260208201905092915050565b6000819050602082019050919050565b600081519050919050565b600082825260208201905092915050565b60005b838110156114155780820151818401526020810190506113fa565b60008484015250505050565b600061142c826113db565b61143681856113e6565b93506114468185602086016113f7565b61144f8161122a565b840191505092915050565b60006114668383611421565b905092915050565b6000602082019050919050565b6000611486826113af565b61149081856113ba565b9350836020820285016114a2856113cb565b8060005b858110156114de57848403895281516114bf858261145a565b94506114ca8361146e565b925060208a019950506001810190506114a6565b50829750879550505050505092915050565b6000602082019050818103600083015261150a818461147b565b905092915050565b600082825260208201905092915050565b600061152e826113db565b6115388185611512565b93506115488185602086016113f7565b6115518161122a565b840191505092915050565b600060208201905081810360008301526115768184611523565b905092915050565b600081519050919050565b600082825260208201905092915050565b6000819050602082019050919050565b6115b3816110d2565b82525050565b60006115c583836115aa565b60208301905092915050565b6000602082019050919050565b60006115e98261157e565b6115f38185611589565b93506115fe8361159a565b8060005b8381101561162f57815161161688826115b9565b9750611621836115d1565b925050600181019050611602565b5085935050505092915050565b6000602082019050818103600083015261165681846115de565b905092915050565b600082905092915050565b7f4e487b7100000000000000000000000000000000000000000000000000000000600052602260045260246000fd5b600060028204905060018216806116b057607f821691505b6020821081036116c3576116c2611669565b5b50919050565b60008190508160005260206000209050919050565b60006020601f8301049050919050565b600082821b905092915050565b60006008830261172b7fffffffffffffffffffffffffffffffffffffffffffffffffffffffffffffffff826116ee565b61173586836116ee565b95508019841693508086168417925050509392505050565b6000819050919050565b6000819050919050565b600061177c6117776117728461174d565b611757565b61174d565b9050919050565b6000819050919050565b61179683611761565b6117aa6117a282611783565b8484546116fb565b825550505050565b600090565b6117bf6117b2565b6117ca81848461178d565b505050565b5b818110156117ee576117e36000826117b7565b6001810190506117d0565b5050565b601f82111561183357611804816116c9565b61180d846116de565b8101602085101561181c578190505b611830611828856116de565b8301826117cf565b50505b505050565b600082821c905092915050565b600061185660001984600802611838565b1980831691505092915050565b600061186f8383611845565b9150826002028217905092915050565b611889838361165e565b67ffffffffffffffff8111156118a2576118a161123b565b5b6118ac8254611698565b6118b78282856117f2565b6000601f8311600181146118e657600084156118d4578287013590505b6118de8582611863565b865550611946565b601f1984166118f4866116c9565b60005b8281101561191c578489013582556001820191506020850194506020810190506118f7565b868310156119395784890135611935601f891682611845565b8355505b6001600288020188555050505b50505050505050565b611958826113db565b67ffffffffffffffff8111156119715761197061123b565b5b61197b8254611698565b6119868282856117f2565b600060209050601f8311600181146119b957600084156119a7578287015190505b6119b18582611863565b865550611a19565b601f1984166119c7866116c9565b60005b828110156119ef578489015182556001820191506020850194506020810190506119ca565b86831015611a0c5784890151611a08601f891682611845565b8355505b6001600288020188555050505b505050505050565b7f4e487b7100000000000000000000000000000000000000000000000000000000600052603260045260246000fd5b7f4e487b7100000000000000000000000000000000000000000000000000000000600052601160045260246000fd5b6000611a8a8261174d565b9150611a958361174d565b9250828203905081811115611aad57611aac611a50565b5b92915050565b7f4e487b7100000000000000000000000000000000000000000000000000000000600052603160045260246000fd5b6000611aed8261174d565b91507fffffffffffffffffffffffffffffffffffffffffffffffffffffffffffffffff8203611b1f57611b1e611a50565b5b60018201905091905056fea26469706673582212206fa1e2d081e730e9c0423146d30f6ae101d7a65ec9a675382283af36cf6a773864736f6c63430008110033",
  "linkReferences": {},
  "deployedLinkReferences": {}
}